{
	"data": {
		"bytecode": {
			"linkReferences": {},
			"object": "6080604052348015600e575f5ffd5b50610af18061001c5f395ff3fe608060405260043610610054575f3560e01c806302c7e7af14610058578063189a55e71461008257806364b131761461008c5780638da5cb5b146100b4578063d1f3bf1d146100de578063de761c661461011a575b5f5ffd5b348015610063575f5ffd5b5061006c610145565b60405161007991906103dc565b60405180910390f35b61008a610158565b005b348015610097575f5ffd5b506100b260048036038101906100ad9190610579565b610250565b005b3480156100bf575f5ffd5b506100c86102da565b6040516100d59190610612565b60405180910390f35b3480156100e9575f5ffd5b5061010460048036038101906100ff919061065e565b610300565b6040516101119190610698565b60405180910390f35b348015610125575f5ffd5b5061012e61031c565b60405161013c929190610720565b60405180910390f35b600160169054906101000a900460ff1681565b61017460015f9054906101000a900461ffff1661ffff16610300565b341061024e575f61019760015f9054906101000a900461ffff1661ffff16610300565b346101a2919061077b565b90505f8111156101f1573373ffffffffffffffffffffffffffffffffffffffff166108fc8290811502906040515f60405180830381858888f193505050501580156101ef573d5f5f3e3d5ffd5b505b33600160026101000a81548173ffffffffffffffffffffffffffffffffffffffff021916908373ffffffffffffffffffffffffffffffffffffffff16021790555060018060166101000a81548160ff021916908315150217905550505b565b815f908161025e91906109ab565b508060015f6101000a81548161ffff021916908361ffff16021790555033600160026101000a81548173ffffffffffffffffffffffffffffffffffffffff021916908373ffffffffffffffffffffffffffffffffffffffff1602179055505f600160166101000a81548160ff0219169083151502179055505050565b600160029054906101000a900473ffffffffffffffffffffffffffffffffffffffff1681565b5f670de0b6b3a7640000826103159190610a7a565b9050919050565b60605f5f60015f9054906101000a900461ffff1681805461033c906107db565b80601f0160208091040260200160405190810160405280929190818152602001828054610368906107db565b80156103b35780601f1061038a576101008083540402835291602001916103b3565b820191905f5260205f20905b81548152906001019060200180831161039657829003601f168201915b50505050509150915091509091565b5f8115159050919050565b6103d6816103c2565b82525050565b5f6020820190506103ef5f8301846103cd565b92915050565b5f604051905090565b5f5ffd5b5f5ffd5b5f5ffd5b5f5ffd5b5f601f19601f8301169050919050565b7f4e487b71000000000000000000000000000000000000000000000000000000005f52604160045260245ffd5b6104548261040e565b810181811067ffffffffffffffff821117156104735761047261041e565b5b80604052505050565b5f6104856103f5565b9050610491828261044b565b919050565b5f67ffffffffffffffff8211156104b0576104af61041e565b5b6104b98261040e565b9050602081019050919050565b828183375f83830152505050565b5f6104e66104e184610496565b61047c565b9050828152602081018484840111156105025761050161040a565b5b61050d8482856104c6565b509392505050565b5f82601f83011261052957610528610406565b5b81356105398482602086016104d4565b91505092915050565b5f61ffff82169050919050565b61055881610542565b8114610562575f5ffd5b50565b5f813590506105738161054f565b92915050565b5f5f6040838503121561058f5761058e6103fe565b5b5f83013567ffffffffffffffff8111156105ac576105ab610402565b5b6105b885828601610515565b92505060206105c985828601610565565b9150509250929050565b5f73ffffffffffffffffffffffffffffffffffffffff82169050919050565b5f6105fc826105d3565b9050919050565b61060c816105f2565b82525050565b5f6020820190506106255f830184610603565b92915050565b5f819050919050565b61063d8161062b565b8114610647575f5ffd5b50565b5f8135905061065881610634565b92915050565b5f60208284031215610673576106726103fe565b5b5f6106808482850161064a565b91505092915050565b6106928161062b565b82525050565b5f6020820190506106ab5f830184610689565b92915050565b5f81519050919050565b5f82825260208201905092915050565b8281835e5f83830152505050565b5f6106e3826106b1565b6106ed81856106bb565b93506106fd8185602086016106cb565b6107068161040e565b840191505092915050565b61071a81610542565b82525050565b5f6040820190508181035f83015261073881856106d9565b90506107476020830184610711565b9392505050565b7f4e487b71000000000000000000000000000000000000000000000000000000005f52601160045260245ffd5b5f6107858261062b565b91506107908361062b565b92508282039050818111156107a8576107a761074e565b5b92915050565b7f4e487b71000000000000000000000000000000000000000000000000000000005f52602260045260245ffd5b5f60028204905060018216806107f257607f821691505b602082108103610805576108046107ae565b5b50919050565b5f819050815f5260205f209050919050565b5f6020601f8301049050919050565b5f82821b905092915050565b5f600883026108677fffffffffffffffffffffffffffffffffffffffffffffffffffffffffffffffff8261082c565b610871868361082c565b95508019841693508086168417925050509392505050565b5f819050919050565b5f6108ac6108a76108a28461062b565b610889565b61062b565b9050919050565b5f819050919050565b6108c583610892565b6108d96108d1826108b3565b848454610838565b825550505050565b5f5f905090565b6108f06108e1565b6108fb8184846108bc565b505050565b5b8181101561091e576109135f826108e8565b600181019050610901565b5050565b601f821115610963576109348161080b565b61093d8461081d565b8101602085101561094c578190505b6109606109588561081d565b830182610900565b50505b505050565b5f82821c905092915050565b5f6109835f1984600802610968565b1980831691505092915050565b5f61099b8383610974565b9150826002028217905092915050565b6109b4826106b1565b67ffffffffffffffff8111156109cd576109cc61041e565b5b6109d782546107db565b6109e2828285610922565b5f60209050601f831160018114610a13575f8415610a01578287015190505b610a0b8582610990565b865550610a72565b601f198416610a218661080b565b5f5b82811015610a4857848901518255600182019150602085019450602081019050610a23565b86831015610a655784890151610a61601f891682610974565b8355505b6001600288020188555050505b505050505050565b5f610a848261062b565b9150610a8f8361062b565b9250828202610a9d8161062b565b91508282048414831517610ab457610ab361074e565b5b509291505056fea264697066735822122086216a622f8ff2526ec9f9704dd319088fc6e6a03ea0bfb8c2e3ff407fd5cf2a64736f6c634300081c0033",
			"opcodes": "PUSH1 0x80 PUSH1 0x40 MSTORE CALLVALUE DUP1 ISZERO PUSH1 0xE JUMPI PUSH0 PUSH0 REVERT JUMPDEST POP PUSH2 0xAF1 DUP1 PUSH2 0x1C PUSH0 CODECOPY PUSH0 RETURN INVALID PUSH1 0x80 PUSH1 0x40 MSTORE PUSH1 0x4 CALLDATASIZE LT PUSH2 0x54 JUMPI PUSH0 CALLDATALOAD PUSH1 0xE0 SHR DUP1 PUSH4 0x2C7E7AF EQ PUSH2 0x58 JUMPI DUP1 PUSH4 0x189A55E7 EQ PUSH2 0x82 JUMPI DUP1 PUSH4 0x64B13176 EQ PUSH2 0x8C JUMPI DUP1 PUSH4 0x8DA5CB5B EQ PUSH2 0xB4 JUMPI DUP1 PUSH4 0xD1F3BF1D EQ PUSH2 0xDE JUMPI DUP1 PUSH4 0xDE761C66 EQ PUSH2 0x11A JUMPI JUMPDEST PUSH0 PUSH0 REVERT JUMPDEST CALLVALUE DUP1 ISZERO PUSH2 0x63 JUMPI PUSH0 PUSH0 REVERT JUMPDEST POP PUSH2 0x6C PUSH2 0x145 JUMP JUMPDEST PUSH1 0x40 MLOAD PUSH2 0x79 SWAP2 SWAP1 PUSH2 0x3DC JUMP JUMPDEST PUSH1 0x40 MLOAD DUP1 SWAP2 SUB SWAP1 RETURN JUMPDEST PUSH2 0x8A PUSH2 0x158 JUMP JUMPDEST STOP JUMPDEST CALLVALUE DUP1 ISZERO PUSH2 0x97 JUMPI PUSH0 PUSH0 REVERT JUMPDEST POP PUSH2 0xB2 PUSH1 0x4 DUP1 CALLDATASIZE SUB DUP2 ADD SWAP1 PUSH2 0xAD SWAP2 SWAP1 PUSH2 0x579 JUMP JUMPDEST PUSH2 0x250 JUMP JUMPDEST STOP JUMPDEST CALLVALUE DUP1 ISZERO PUSH2 0xBF JUMPI PUSH0 PUSH0 REVERT JUMPDEST POP PUSH2 0xC8 PUSH2 0x2DA JUMP JUMPDEST PUSH1 0x40 MLOAD PUSH2 0xD5 SWAP2 SWAP1 PUSH2 0x612 JUMP JUMPDEST PUSH1 0x40 MLOAD DUP1 SWAP2 SUB SWAP1 RETURN JUMPDEST CALLVALUE DUP1 ISZERO PUSH2 0xE9 JUMPI PUSH0 PUSH0 REVERT JUMPDEST POP PUSH2 0x104 PUSH1 0x4 DUP1 CALLDATASIZE SUB DUP2 ADD SWAP1 PUSH2 0xFF SWAP2 SWAP1 PUSH2 0x65E JUMP JUMPDEST PUSH2 0x300 JUMP JUMPDEST PUSH1 0x40 MLOAD PUSH2 0x111 SWAP2 SWAP1 PUSH2 0x698 JUMP JUMPDEST PUSH1 0x40 MLOAD DUP1 SWAP2 SUB SWAP1 RETURN JUMPDEST CALLVALUE DUP1 ISZERO PUSH2 0x125 JUMPI PUSH0 PUSH0 REVERT JUMPDEST POP PUSH2 0x12E PUSH2 0x31C JUMP JUMPDEST PUSH1 0x40 MLOAD PUSH2 0x13C SWAP3 SWAP2 SWAP1 PUSH2 0x720 JUMP JUMPDEST PUSH1 0x40 MLOAD DUP1 SWAP2 SUB SWAP1 RETURN JUMPDEST PUSH1 0x1 PUSH1 0x16 SWAP1 SLOAD SWAP1 PUSH2 0x100 EXP SWAP1 DIV PUSH1 0xFF AND DUP2 JUMP JUMPDEST PUSH2 0x174 PUSH1 0x1 PUSH0 SWAP1 SLOAD SWAP1 PUSH2 0x100 EXP SWAP1 DIV PUSH2 0xFFFF AND PUSH2 0xFFFF AND PUSH2 0x300 JUMP JUMPDEST CALLVALUE LT PUSH2 0x24E JUMPI PUSH0 PUSH2 0x197 PUSH1 0x1 PUSH0 SWAP1 SLOAD SWAP1 PUSH2 0x100 EXP SWAP1 DIV PUSH2 0xFFFF AND PUSH2 0xFFFF AND PUSH2 0x300 JUMP JUMPDEST CALLVALUE PUSH2 0x1A2 SWAP2 SWAP1 PUSH2 0x77B JUMP JUMPDEST SWAP1 POP PUSH0 DUP2 GT ISZERO PUSH2 0x1F1 JUMPI CALLER PUSH20 0xFFFFFFFFFFFFFFFFFFFFFFFFFFFFFFFFFFFFFFFF AND PUSH2 0x8FC DUP3 SWAP1 DUP2 ISZERO MUL SWAP1 PUSH1 0x40 MLOAD PUSH0 PUSH1 0x40 MLOAD DUP1 DUP4 SUB DUP2 DUP6 DUP9 DUP9 CALL SWAP4 POP POP POP POP ISZERO DUP1 ISZERO PUSH2 0x1EF JUMPI RETURNDATASIZE PUSH0 PUSH0 RETURNDATACOPY RETURNDATASIZE PUSH0 REVERT JUMPDEST POP JUMPDEST CALLER PUSH1 0x1 PUSH1 0x2 PUSH2 0x100 EXP DUP2 SLOAD DUP2 PUSH20 0xFFFFFFFFFFFFFFFFFFFFFFFFFFFFFFFFFFFFFFFF MUL NOT AND SWAP1 DUP4 PUSH20 0xFFFFFFFFFFFFFFFFFFFFFFFFFFFFFFFFFFFFFFFF AND MUL OR SWAP1 SSTORE POP PUSH1 0x1 DUP1 PUSH1 0x16 PUSH2 0x100 EXP DUP2 SLOAD DUP2 PUSH1 0xFF MUL NOT AND SWAP1 DUP4 ISZERO ISZERO MUL OR SWAP1 SSTORE POP POP JUMPDEST JUMP JUMPDEST DUP2 PUSH0 SWAP1 DUP2 PUSH2 0x25E SWAP2 SWAP1 PUSH2 0x9AB JUMP JUMPDEST POP DUP1 PUSH1 0x1 PUSH0 PUSH2 0x100 EXP DUP2 SLOAD DUP2 PUSH2 0xFFFF MUL NOT AND SWAP1 DUP4 PUSH2 0xFFFF AND MUL OR SWAP1 SSTORE POP CALLER PUSH1 0x1 PUSH1 0x2 PUSH2 0x100 EXP DUP2 SLOAD DUP2 PUSH20 0xFFFFFFFFFFFFFFFFFFFFFFFFFFFFFFFFFFFFFFFF MUL NOT AND SWAP1 DUP4 PUSH20 0xFFFFFFFFFFFFFFFFFFFFFFFFFFFFFFFFFFFFFFFF AND MUL OR SWAP1 SSTORE POP PUSH0 PUSH1 0x1 PUSH1 0x16 PUSH2 0x100 EXP DUP2 SLOAD DUP2 PUSH1 0xFF MUL NOT AND SWAP1 DUP4 ISZERO ISZERO MUL OR SWAP1 SSTORE POP POP POP JUMP JUMPDEST PUSH1 0x1 PUSH1 0x2 SWAP1 SLOAD SWAP1 PUSH2 0x100 EXP SWAP1 DIV PUSH20 0xFFFFFFFFFFFFFFFFFFFFFFFFFFFFFFFFFFFFFFFF AND DUP2 JUMP JUMPDEST PUSH0 PUSH8 0xDE0B6B3A7640000 DUP3 PUSH2 0x315 SWAP2 SWAP1 PUSH2 0xA7A JUMP JUMPDEST SWAP1 POP SWAP2 SWAP1 POP JUMP JUMPDEST PUSH1 0x60 PUSH0 PUSH0 PUSH1 0x1 PUSH0 SWAP1 SLOAD SWAP1 PUSH2 0x100 EXP SWAP1 DIV PUSH2 0xFFFF AND DUP2 DUP1 SLOAD PUSH2 0x33C SWAP1 PUSH2 0x7DB JUMP JUMPDEST DUP1 PUSH1 0x1F ADD PUSH1 0x20 DUP1 SWAP2 DIV MUL PUSH1 0x20 ADD PUSH1 0x40 MLOAD SWAP1 DUP2 ADD PUSH1 0x40 MSTORE DUP1 SWAP3 SWAP2 SWAP1 DUP2 DUP2 MSTORE PUSH1 0x20 ADD DUP3 DUP1 SLOAD PUSH2 0x368 SWAP1 PUSH2 0x7DB JUMP JUMPDEST DUP1 ISZERO PUSH2 0x3B3 JUMPI DUP1 PUSH1 0x1F LT PUSH2 0x38A JUMPI PUSH2 0x100 DUP1 DUP4 SLOAD DIV MUL DUP4 MSTORE SWAP2 PUSH1 0x20 ADD SWAP2 PUSH2 0x3B3 JUMP JUMPDEST DUP3 ADD SWAP2 SWAP1 PUSH0 MSTORE PUSH1 0x20 PUSH0 KECCAK256 SWAP1 JUMPDEST DUP2 SLOAD DUP2 MSTORE SWAP1 PUSH1 0x1 ADD SWAP1 PUSH1 0x20 ADD DUP1 DUP4 GT PUSH2 0x396 JUMPI DUP3 SWAP1 SUB PUSH1 0x1F AND DUP3 ADD SWAP2 JUMPDEST POP POP POP POP POP SWAP2 POP SWAP2 POP SWAP2 POP SWAP1 SWAP2 JUMP JUMPDEST PUSH0 DUP2 ISZERO ISZERO SWAP1 POP SWAP2 SWAP1 POP JUMP JUMPDEST PUSH2 0x3D6 DUP2 PUSH2 0x3C2 JUMP JUMPDEST DUP3 MSTORE POP POP JUMP JUMPDEST PUSH0 PUSH1 0x20 DUP3 ADD SWAP1 POP PUSH2 0x3EF PUSH0 DUP4 ADD DUP5 PUSH2 0x3CD JUMP JUMPDEST SWAP3 SWAP2 POP POP JUMP JUMPDEST PUSH0 PUSH1 0x40 MLOAD SWAP1 POP SWAP1 JUMP JUMPDEST PUSH0 PUSH0 REVERT JUMPDEST PUSH0 PUSH0 REVERT JUMPDEST PUSH0 PUSH0 REVERT JUMPDEST PUSH0 PUSH0 REVERT JUMPDEST PUSH0 PUSH1 0x1F NOT PUSH1 0x1F DUP4 ADD AND SWAP1 POP SWAP2 SWAP1 POP JUMP JUMPDEST PUSH32 0x4E487B7100000000000000000000000000000000000000000000000000000000 PUSH0 MSTORE PUSH1 0x41 PUSH1 0x4 MSTORE PUSH1 0x24 PUSH0 REVERT JUMPDEST PUSH2 0x454 DUP3 PUSH2 0x40E JUMP JUMPDEST DUP2 ADD DUP2 DUP2 LT PUSH8 0xFFFFFFFFFFFFFFFF DUP3 GT OR ISZERO PUSH2 0x473 JUMPI PUSH2 0x472 PUSH2 0x41E JUMP JUMPDEST JUMPDEST DUP1 PUSH1 0x40 MSTORE POP POP POP JUMP JUMPDEST PUSH0 PUSH2 0x485 PUSH2 0x3F5 JUMP JUMPDEST SWAP1 POP PUSH2 0x491 DUP3 DUP3 PUSH2 0x44B JUMP JUMPDEST SWAP2 SWAP1 POP JUMP JUMPDEST PUSH0 PUSH8 0xFFFFFFFFFFFFFFFF DUP3 GT ISZERO PUSH2 0x4B0 JUMPI PUSH2 0x4AF PUSH2 0x41E JUMP JUMPDEST JUMPDEST PUSH2 0x4B9 DUP3 PUSH2 0x40E JUMP JUMPDEST SWAP1 POP PUSH1 0x20 DUP2 ADD SWAP1 POP SWAP2 SWAP1 POP JUMP JUMPDEST DUP3 DUP2 DUP4 CALLDATACOPY PUSH0 DUP4 DUP4 ADD MSTORE POP POP POP JUMP JUMPDEST PUSH0 PUSH2 0x4E6 PUSH2 0x4E1 DUP5 PUSH2 0x496 JUMP JUMPDEST PUSH2 0x47C JUMP JUMPDEST SWAP1 POP DUP3 DUP2 MSTORE PUSH1 0x20 DUP2 ADD DUP5 DUP5 DUP5 ADD GT ISZERO PUSH2 0x502 JUMPI PUSH2 0x501 PUSH2 0x40A JUMP JUMPDEST JUMPDEST PUSH2 0x50D DUP5 DUP3 DUP6 PUSH2 0x4C6 JUMP JUMPDEST POP SWAP4 SWAP3 POP POP POP JUMP JUMPDEST PUSH0 DUP3 PUSH1 0x1F DUP4 ADD SLT PUSH2 0x529 JUMPI PUSH2 0x528 PUSH2 0x406 JUMP JUMPDEST JUMPDEST DUP2 CALLDATALOAD PUSH2 0x539 DUP5 DUP3 PUSH1 0x20 DUP7 ADD PUSH2 0x4D4 JUMP JUMPDEST SWAP2 POP POP SWAP3 SWAP2 POP POP JUMP JUMPDEST PUSH0 PUSH2 0xFFFF DUP3 AND SWAP1 POP SWAP2 SWAP1 POP JUMP JUMPDEST PUSH2 0x558 DUP2 PUSH2 0x542 JUMP JUMPDEST DUP2 EQ PUSH2 0x562 JUMPI PUSH0 PUSH0 REVERT JUMPDEST POP JUMP JUMPDEST PUSH0 DUP2 CALLDATALOAD SWAP1 POP PUSH2 0x573 DUP2 PUSH2 0x54F JUMP JUMPDEST SWAP3 SWAP2 POP POP JUMP JUMPDEST PUSH0 PUSH0 PUSH1 0x40 DUP4 DUP6 SUB SLT ISZERO PUSH2 0x58F JUMPI PUSH2 0x58E PUSH2 0x3FE JUMP JUMPDEST JUMPDEST PUSH0 DUP4 ADD CALLDATALOAD PUSH8 0xFFFFFFFFFFFFFFFF DUP2 GT ISZERO PUSH2 0x5AC JUMPI PUSH2 0x5AB PUSH2 0x402 JUMP JUMPDEST JUMPDEST PUSH2 0x5B8 DUP6 DUP3 DUP7 ADD PUSH2 0x515 JUMP JUMPDEST SWAP3 POP POP PUSH1 0x20 PUSH2 0x5C9 DUP6 DUP3 DUP7 ADD PUSH2 0x565 JUMP JUMPDEST SWAP2 POP POP SWAP3 POP SWAP3 SWAP1 POP JUMP JUMPDEST PUSH0 PUSH20 0xFFFFFFFFFFFFFFFFFFFFFFFFFFFFFFFFFFFFFFFF DUP3 AND SWAP1 POP SWAP2 SWAP1 POP JUMP JUMPDEST PUSH0 PUSH2 0x5FC DUP3 PUSH2 0x5D3 JUMP JUMPDEST SWAP1 POP SWAP2 SWAP1 POP JUMP JUMPDEST PUSH2 0x60C DUP2 PUSH2 0x5F2 JUMP JUMPDEST DUP3 MSTORE POP POP JUMP JUMPDEST PUSH0 PUSH1 0x20 DUP3 ADD SWAP1 POP PUSH2 0x625 PUSH0 DUP4 ADD DUP5 PUSH2 0x603 JUMP JUMPDEST SWAP3 SWAP2 POP POP JUMP JUMPDEST PUSH0 DUP2 SWAP1 POP SWAP2 SWAP1 POP JUMP JUMPDEST PUSH2 0x63D DUP2 PUSH2 0x62B JUMP JUMPDEST DUP2 EQ PUSH2 0x647 JUMPI PUSH0 PUSH0 REVERT JUMPDEST POP JUMP JUMPDEST PUSH0 DUP2 CALLDATALOAD SWAP1 POP PUSH2 0x658 DUP2 PUSH2 0x634 JUMP JUMPDEST SWAP3 SWAP2 POP POP JUMP JUMPDEST PUSH0 PUSH1 0x20 DUP3 DUP5 SUB SLT ISZERO PUSH2 0x673 JUMPI PUSH2 0x672 PUSH2 0x3FE JUMP JUMPDEST JUMPDEST PUSH0 PUSH2 0x680 DUP5 DUP3 DUP6 ADD PUSH2 0x64A JUMP JUMPDEST SWAP2 POP POP SWAP3 SWAP2 POP POP JUMP JUMPDEST PUSH2 0x692 DUP2 PUSH2 0x62B JUMP JUMPDEST DUP3 MSTORE POP POP JUMP JUMPDEST PUSH0 PUSH1 0x20 DUP3 ADD SWAP1 POP PUSH2 0x6AB PUSH0 DUP4 ADD DUP5 PUSH2 0x689 JUMP JUMPDEST SWAP3 SWAP2 POP POP JUMP JUMPDEST PUSH0 DUP2 MLOAD SWAP1 POP SWAP2 SWAP1 POP JUMP JUMPDEST PUSH0 DUP3 DUP3 MSTORE PUSH1 0x20 DUP3 ADD SWAP1 POP SWAP3 SWAP2 POP POP JUMP JUMPDEST DUP3 DUP2 DUP4 MCOPY PUSH0 DUP4 DUP4 ADD MSTORE POP POP POP JUMP JUMPDEST PUSH0 PUSH2 0x6E3 DUP3 PUSH2 0x6B1 JUMP JUMPDEST PUSH2 0x6ED DUP2 DUP6 PUSH2 0x6BB JUMP JUMPDEST SWAP4 POP PUSH2 0x6FD DUP2 DUP6 PUSH1 0x20 DUP7 ADD PUSH2 0x6CB JUMP JUMPDEST PUSH2 0x706 DUP2 PUSH2 0x40E JUMP JUMPDEST DUP5 ADD SWAP2 POP POP SWAP3 SWAP2 POP POP JUMP JUMPDEST PUSH2 0x71A DUP2 PUSH2 0x542 JUMP JUMPDEST DUP3 MSTORE POP POP JUMP JUMPDEST PUSH0 PUSH1 0x40 DUP3 ADD SWAP1 POP DUP2 DUP2 SUB PUSH0 DUP4 ADD MSTORE PUSH2 0x738 DUP2 DUP6 PUSH2 0x6D9 JUMP JUMPDEST SWAP1 POP PUSH2 0x747 PUSH1 0x20 DUP4 ADD DUP5 PUSH2 0x711 JUMP JUMPDEST SWAP4 SWAP3 POP POP POP JUMP JUMPDEST PUSH32 0x4E487B7100000000000000000000000000000000000000000000000000000000 PUSH0 MSTORE PUSH1 0x11 PUSH1 0x4 MSTORE PUSH1 0x24 PUSH0 REVERT JUMPDEST PUSH0 PUSH2 0x785 DUP3 PUSH2 0x62B JUMP JUMPDEST SWAP2 POP PUSH2 0x790 DUP4 PUSH2 0x62B JUMP JUMPDEST SWAP3 POP DUP3 DUP3 SUB SWAP1 POP DUP2 DUP2 GT ISZERO PUSH2 0x7A8 JUMPI PUSH2 0x7A7 PUSH2 0x74E JUMP JUMPDEST JUMPDEST SWAP3 SWAP2 POP POP JUMP JUMPDEST PUSH32 0x4E487B7100000000000000000000000000000000000000000000000000000000 PUSH0 MSTORE PUSH1 0x22 PUSH1 0x4 MSTORE PUSH1 0x24 PUSH0 REVERT JUMPDEST PUSH0 PUSH1 0x2 DUP3 DIV SWAP1 POP PUSH1 0x1 DUP3 AND DUP1 PUSH2 0x7F2 JUMPI PUSH1 0x7F DUP3 AND SWAP2 POP JUMPDEST PUSH1 0x20 DUP3 LT DUP2 SUB PUSH2 0x805 JUMPI PUSH2 0x804 PUSH2 0x7AE JUMP JUMPDEST JUMPDEST POP SWAP2 SWAP1 POP JUMP JUMPDEST PUSH0 DUP2 SWAP1 POP DUP2 PUSH0 MSTORE PUSH1 0x20 PUSH0 KECCAK256 SWAP1 POP SWAP2 SWAP1 POP JUMP JUMPDEST PUSH0 PUSH1 0x20 PUSH1 0x1F DUP4 ADD DIV SWAP1 POP SWAP2 SWAP1 POP JUMP JUMPDEST PUSH0 DUP3 DUP3 SHL SWAP1 POP SWAP3 SWAP2 POP POP JUMP JUMPDEST PUSH0 PUSH1 0x8 DUP4 MUL PUSH2 0x867 PUSH32 0xFFFFFFFFFFFFFFFFFFFFFFFFFFFFFFFFFFFFFFFFFFFFFFFFFFFFFFFFFFFFFFFF DUP3 PUSH2 0x82C JUMP JUMPDEST PUSH2 0x871 DUP7 DUP4 PUSH2 0x82C JUMP JUMPDEST SWAP6 POP DUP1 NOT DUP5 AND SWAP4 POP DUP1 DUP7 AND DUP5 OR SWAP3 POP POP POP SWAP4 SWAP3 POP POP POP JUMP JUMPDEST PUSH0 DUP2 SWAP1 POP SWAP2 SWAP1 POP JUMP JUMPDEST PUSH0 PUSH2 0x8AC PUSH2 0x8A7 PUSH2 0x8A2 DUP5 PUSH2 0x62B JUMP JUMPDEST PUSH2 0x889 JUMP JUMPDEST PUSH2 0x62B JUMP JUMPDEST SWAP1 POP SWAP2 SWAP1 POP JUMP JUMPDEST PUSH0 DUP2 SWAP1 POP SWAP2 SWAP1 POP JUMP JUMPDEST PUSH2 0x8C5 DUP4 PUSH2 0x892 JUMP JUMPDEST PUSH2 0x8D9 PUSH2 0x8D1 DUP3 PUSH2 0x8B3 JUMP JUMPDEST DUP5 DUP5 SLOAD PUSH2 0x838 JUMP JUMPDEST DUP3 SSTORE POP POP POP POP JUMP JUMPDEST PUSH0 PUSH0 SWAP1 POP SWAP1 JUMP JUMPDEST PUSH2 0x8F0 PUSH2 0x8E1 JUMP JUMPDEST PUSH2 0x8FB DUP2 DUP5 DUP5 PUSH2 0x8BC JUMP JUMPDEST POP POP POP JUMP JUMPDEST JUMPDEST DUP2 DUP2 LT ISZERO PUSH2 0x91E JUMPI PUSH2 0x913 PUSH0 DUP3 PUSH2 0x8E8 JUMP JUMPDEST PUSH1 0x1 DUP2 ADD SWAP1 POP PUSH2 0x901 JUMP JUMPDEST POP POP JUMP JUMPDEST PUSH1 0x1F DUP3 GT ISZERO PUSH2 0x963 JUMPI PUSH2 0x934 DUP2 PUSH2 0x80B JUMP JUMPDEST PUSH2 0x93D DUP5 PUSH2 0x81D JUMP JUMPDEST DUP2 ADD PUSH1 0x20 DUP6 LT ISZERO PUSH2 0x94C JUMPI DUP2 SWAP1 POP JUMPDEST PUSH2 0x960 PUSH2 0x958 DUP6 PUSH2 0x81D JUMP JUMPDEST DUP4 ADD DUP3 PUSH2 0x900 JUMP JUMPDEST POP POP JUMPDEST POP POP POP JUMP JUMPDEST PUSH0 DUP3 DUP3 SHR SWAP1 POP SWAP3 SWAP2 POP POP JUMP JUMPDEST PUSH0 PUSH2 0x983 PUSH0 NOT DUP5 PUSH1 0x8 MUL PUSH2 0x968 JUMP JUMPDEST NOT DUP1 DUP4 AND SWAP2 POP POP SWAP3 SWAP2 POP POP JUMP JUMPDEST PUSH0 PUSH2 0x99B DUP4 DUP4 PUSH2 0x974 JUMP JUMPDEST SWAP2 POP DUP3 PUSH1 0x2 MUL DUP3 OR SWAP1 POP SWAP3 SWAP2 POP POP JUMP JUMPDEST PUSH2 0x9B4 DUP3 PUSH2 0x6B1 JUMP JUMPDEST PUSH8 0xFFFFFFFFFFFFFFFF DUP2 GT ISZERO PUSH2 0x9CD JUMPI PUSH2 0x9CC PUSH2 0x41E JUMP JUMPDEST JUMPDEST PUSH2 0x9D7 DUP3 SLOAD PUSH2 0x7DB JUMP JUMPDEST PUSH2 0x9E2 DUP3 DUP3 DUP6 PUSH2 0x922 JUMP JUMPDEST PUSH0 PUSH1 0x20 SWAP1 POP PUSH1 0x1F DUP4 GT PUSH1 0x1 DUP2 EQ PUSH2 0xA13 JUMPI PUSH0 DUP5 ISZERO PUSH2 0xA01 JUMPI DUP3 DUP8 ADD MLOAD SWAP1 POP JUMPDEST PUSH2 0xA0B DUP6 DUP3 PUSH2 0x990 JUMP JUMPDEST DUP7 SSTORE POP PUSH2 0xA72 JUMP JUMPDEST PUSH1 0x1F NOT DUP5 AND PUSH2 0xA21 DUP7 PUSH2 0x80B JUMP JUMPDEST PUSH0 JUMPDEST DUP3 DUP2 LT ISZERO PUSH2 0xA48 JUMPI DUP5 DUP10 ADD MLOAD DUP3 SSTORE PUSH1 0x1 DUP3 ADD SWAP2 POP PUSH1 0x20 DUP6 ADD SWAP5 POP PUSH1 0x20 DUP2 ADD SWAP1 POP PUSH2 0xA23 JUMP JUMPDEST DUP7 DUP4 LT ISZERO PUSH2 0xA65 JUMPI DUP5 DUP10 ADD MLOAD PUSH2 0xA61 PUSH1 0x1F DUP10 AND DUP3 PUSH2 0x974 JUMP JUMPDEST DUP4 SSTORE POP JUMPDEST PUSH1 0x1 PUSH1 0x2 DUP9 MUL ADD DUP9 SSTORE POP POP POP JUMPDEST POP POP POP POP POP POP JUMP JUMPDEST PUSH0 PUSH2 0xA84 DUP3 PUSH2 0x62B JUMP JUMPDEST SWAP2 POP PUSH2 0xA8F DUP4 PUSH2 0x62B JUMP JUMPDEST SWAP3 POP DUP3 DUP3 MUL PUSH2 0xA9D DUP2 PUSH2 0x62B JUMP JUMPDEST SWAP2 POP DUP3 DUP3 DIV DUP5 EQ DUP4 ISZERO OR PUSH2 0xAB4 JUMPI PUSH2 0xAB3 PUSH2 0x74E JUMP JUMPDEST JUMPDEST POP SWAP3 SWAP2 POP POP JUMP INVALID LOG2 PUSH5 0x6970667358 0x22 SLT KECCAK256 DUP7 0x21 PUSH11 0x622F8FF2526EC9F9704DD3 NOT ADDMOD DUP16 0xC6 0xE6 LOG0 RETURNDATACOPY LOG0 0xBF 0xB8 0xC2 0xE3 SELFDESTRUCT BLOCKHASH PUSH32 0xD5CF2A64736F6C634300081C0033000000000000000000000000000000000000 "
		},
		"gasEstimates": {
			"creation": {
				"codeDepositCost": "560200",
				"executionCost": "592",
				"totalCost": "560792"
			},
			"external": {
				"buyBook()": "infinite",
				"ethTowei(uint256)": "infinite",
				"getBookDetails()": "infinite",
				"owner()": "2603",
				"setBookDetails(string,uint16)": "infinite",
				"sold()": "2495"
			}
		},
		"methodIdentifiers": {
			"buyBook()": "189a55e7",
			"ethTowei(uint256)": "d1f3bf1d",
			"getBookDetails()": "de761c66",
			"owner()": "8da5cb5b",
			"setBookDetails(string,uint16)": "64b13176",
			"sold()": "02c7e7af"
		}
	},
	"abi": [
		{
			"inputs": [],
			"name": "buyBook",
			"outputs": [],
			"stateMutability": "payable",
			"type": "function"
		},
		{
			"inputs": [
				{
					"internalType": "uint256",
					"name": "eval",
					"type": "uint256"
				}
			],
			"name": "ethTowei",
			"outputs": [
				{
					"internalType": "uint256",
					"name": "",
					"type": "uint256"
				}
			],
			"stateMutability": "pure",
			"type": "function"
		},
		{
			"inputs": [],
			"name": "getBookDetails",
			"outputs": [
				{
					"internalType": "string",
					"name": "",
					"type": "string"
				},
				{
					"internalType": "uint16",
					"name": "",
					"type": "uint16"
				}
			],
			"stateMutability": "view",
			"type": "function"
		},
		{
			"inputs": [],
			"name": "owner",
			"outputs": [
				{
					"internalType": "address",
					"name": "",
					"type": "address"
				}
			],
			"stateMutability": "view",
			"type": "function"
		},
		{
			"inputs": [
				{
					"internalType": "string",
					"name": "_title",
					"type": "string"
				},
				{
					"internalType": "uint16",
					"name": "_price",
					"type": "uint16"
				}
			],
			"name": "setBookDetails",
			"outputs": [],
			"stateMutability": "nonpayable",
			"type": "function"
		},
		{
			"inputs": [],
			"name": "sold",
			"outputs": [
				{
					"internalType": "bool",
					"name": "",
					"type": "bool"
				}
			],
			"stateMutability": "view",
			"type": "function"
		}
	]
}